:020000040800F2
:1000000000000820194A0008194900081B49000887
:100010001D4900081F490008214900080000000090
:10002000000000000000000000000000234900085C
:100030002549000800000000274900082949000858
:10004000694A0008694A0008694A0008694A0008C4
:10005000694A0008694A0008694A0008694A0008B4
:10006000694A0008694A0008694A0008694A0008A4
:100070002D490008694A000839490008694A000802
:10008000694A0008694A0008694A0008694A000884
:10009000694A0008694A0008694A0008694A000874
:1000A000694A000845490008694A0008694A000889
:1000B000694A0008694A0008694A0008694A000854
:1000C000694A0008694A0008694A0008694A000844
:1000D000694A0008694A0008694A0008514900084D
:1000E000694A0008694A0008694A0008694A000824
:1000F000694A0008694A0008694A0008694A000814
:10010000694A00085D490008694A0008694A000810
:10011000694A0008694A0008694A0008694A0008F3
:10012000694A000869490008694A000875490008D9
:10013000694A0008694A0008694A0008694A0008D3
:10014000694A0008694A0008694A0008694A0008C3
:10015000694A000881490008694A0008694A00089C
:10016000694A0008694A0008694A0008694A0008A3
:10017000694A0008694A00088D490008000000002B
:10018000694A0008694A0008694A0008694A000883
:10019000694A0008694A0008694A0008694A000873
:1001A000694A0008694A0008694A0008694A000863
:1001B000694A0008694A0008694A0008694A000853
:1001C000694A0008694A000800000000694A0008FE
:1001D000694A0008694A0008694A0008694A000833
:1001E000694A0008694A0008694A0008694A000823
:0801F000694A0008694A000891
:1002000010B5054C237833B9044B13B10448AFF350
:1002100000800123237010BD740000200000000046
:100220000C53000808B5034B1BB103490348AFF357
:10023000008008BD00000000780000200C5300087A
:10024000034613F8012B002AFBD1181A0138704716
:1002500001F0FF01102A2BDB10F0070F08D010F877
:10026000013B013A8B422DD010F0070F42B3F6D17B
:10027000F0B441EA012141EA014122F007047FF094
:1002800000070023F0E80256083C85EA010586EAEB
:10029000010685FA47F5A3FA87F586FA47F6A5FA27
:1002A00087F68EB9EED1F0BC01F0FF0102F0070233
:1002B00032B110F8013B013A83EA010313B1F8D1DE
:1002C0000020704701387047002D06BF35460338BF
:1002D000073815F0010F07D1013015F4807F02BFF8
:1002E000013015F4C03F0130F0BC0138704700BF49
:1002F00053B94AB9002908BF00281CBF4FF0FF318D
:100300004FF0FF3000F07AB9ADF1080C6DE904CE82
:1003100000F006F8DDF804E0DDE9022304B07047E0
:100320002DE9F0478C460D460446089E002B51D11E
:100330008A4217466DD9B2FA82FEBEF1000F0BD089
:10034000CEF1200C01FA0EF520FA0CFC02FA0EF7A1
:100350004CEA050C00FA0EF44FEA174A250CBCFBD8
:10036000FAF81FFA87F90AFB18CC45EA0C4508FB96
:1003700009F3AB420AD9ED1908F1FF3280F023816D
:10038000AB4240F22081A8F102083D44ED1AA4B22C
:10039000B5FBFAF00AFB105544EA054400FB09F9E5
:1003A000A14509D9E41900F1FF3380F00A81A14584
:1003B00040F2078102383C44A4EB090440EA0840BB
:1003C0000021002E61D024FA0EF400233460736003
:1003D000BDE8F0878B4207D9002E54D0002186E873
:1003E00021000846BDE8F087B3FA83F1002940F008
:1003F0008E80AB4202D3824200F2FA80841A65EB0F
:1004000003050120AC46002E3FD086E81010BDE861
:10041000F08712B90127B7FBF2F7B7FA87FEBEF1F2
:10042000000F34D1EB1B3A0C1FFA87FC0121B3FB00
:10043000F2F8250C02FB183345EA03450CFB08F3E0
:10044000AB4207D9ED1908F1FF3002D2AB4200F2FE
:10045000D1808046ED1AA3B2B5FBF2F002FB105535
:1004600043EA05440CFB00FCA44507D9E41900F15C
:10047000FF3302D2A44500F2B8801846A4EB0C0466
:1004800040EA08409DE731463046BDE8F087CEF1AE
:10049000200405FA0EF307FA0EF720FA04F83A0CD6
:1004A00025FA04F448EA0308B4FBF2F14FEA1845D0
:1004B00002FB11441FFA87FC45EA044501FB0CF3DB
:1004C000AB4200FA0EF409D9ED1901F1FF3080F0CA
:1004D0008A80AB4240F2878002393D44EB1A1FFA12
:1004E00088F5B3FBF2F002FB103345EA034500FB4D
:1004F0000CF3AB4207D9ED1900F1FF386FD2AB42D4
:100500006DD902383D44EB1A40EA01418FE7C1F151
:10051000200722FA07F88B4005FA01F448EA0303A2
:1005200020FA07FE4FEA134CFD404EEA040EB5FBDD
:10053000FCF94FEA1E440CFB19551FFA83F844EAF4
:10054000054509FB08F4AC4202FA01F200FA01FA8F
:1005500008D9ED1809F1FF3043D2AC4241D9A9F1D5
:1005600002091D442D1B1FFA8EFEB5FBFCF00CFB8F
:1005700010554EEA054400FB08F8A04507D9E418D9
:1005800000F1FF3529D2A04527D902381C4440EAA2
:100590000940A4EB0804A0FB02894C45C6464D4621
:1005A00015D312D056B1BAEB0E0364EB050404FA6E
:1005B00007F7CB401F43CC40376074600021BDE893
:1005C000F0871846F8E69046E0E6C245EAD2B8EB76
:1005D000020E69EB03050138E4E72846D7E74046F9
:1005E00091E78146BEE7014678E702383C4445E79B
:1005F000084608E7A8F102083D442BE7704700BF12
:1006000038B50E4B05460E4A18784FF47A73B3FB93
:10061000F0F31068B0FBF3F000F09EF8044658B910
:100620000F2D09D8024629464FF0FF3000F04EF852
:10063000044B20461D6038BD012038BD000000205D
:100640000C0000200400002008B5032000F02CF866
:100650000020FFF7D5FF03F015FF002008BD0000C4
:10066000034A044B11681B780B441360704700BFAA
:10067000A800002000000020014B1868704700BF50
:10068000A800002038B50446FFF7F6FF0546631CB6
:100690001EBF044B1B78E418FFF7EEFF401B84429B
:1006A000FAD838BD00000020074A0002D36800F4E1
:1006B000E06023F4E0631B041B0C43F0BF6343F4CE
:1006C00000330343D360704700ED00E0194B30B5B1
:1006D000DC68C4F30224C4F10703251D042B28BFE2
:1006E0000423062D4FF001058CBF033C002405FABE
:1006F00003F3002803F1FF3301EA030101FA04F1D7
:1007000005FA04F404F1FF3402EA040242EA0102A9
:100710004FEA021207DB00F16040D2B200F56140FF
:1007200080F8002330BD00F00F00D2B2024B1A5403
:1007300030BD00BF00ED00E014ED00E0002808DB54
:100740004209012300F01F0003FA00F0014B43F8B7
:100750002200704700E100E00138B0F1807F0AD24A
:10076000064BF021064A5860002082F82310072229
:1007700098601A6070470120704700BF10E000E0E9
:1007800000ED00E010B5846BA36BA06CC3B10368EF
:100790001968A26B12F001020BD1090309D5DB68BD
:1007A000E16B03EBC10100F0B7FCA36B013BA3635A
:1007B0000CE01A68120309D41B690122E16BF0E70F
:1007C00003681A68110311D5626CDA60A26B236C9E
:1007D0009A420AD12368DA6842F00102DA601B68A3
:1007E0009B0702D5012384F8353010BD1A68120327
:1007F000ECD4E16B626C02EB81021A61236CD6E7E8
:1008000038B5044600283DD090F835300BB903F0D8
:1008100051FE22680223E56884F835301A4B1168CE
:100820000B406168136010296369106843EA010393
:1008300043EA0503256943EA0503A56843EA05037E
:10084000A56943EA0503256A43EA0503656A43EAA5
:100850000503A56A43EA0503E56A43EA0503256B38
:1008600043EA050343EA0003136001D1E36993619E
:10087000D368002043F01E03D3600123E06484F8B2
:10088000353038BD012038BD07F0E0FFF7B504462C
:1008900090F83400164601284FF002002DD025684C
:1008A0004FF0010E84F83500B3F5803F286884F8D6
:1008B00034E040F48040DFF88CC02860286820F0E5
:1008C00002002860286841EA0001A06C29601C49E8
:1008D000C0F83CC0C1644FF000010165A163216410
:1008E0000DD205F1280100F021F9226800201368DB
:1008F00043F00103136084F8340003B0F0BDC0F886
:1009000044C0C4F838E06264E363E36BB3F5803F4E
:100910000FD2A36B05F12801023BA363A36B2364F1
:10092000E36BE26B06EB83030092324600F008FAB9
:10093000DBE7E36B5B08E363A36B5B00A363E4E7C4
:100940004B090008850700087047806B08B5836C69
:100950005B6D022B06D0012380F83530C36C43F069
:100960004003C364FFF7F0FF08BD7047704770474E
:1009700038B5036804461D6969070CD504225A611D
:10098000C36C43F00203C36480F835201C4B806CB9
:10099000036500F008F9AA070ED523680222A06CAF
:1009A0005A61E36C43F00103E364042384F83530B7
:1009B000134B036500F0F7F8EB0605D5236810220A
:1009C00020465A61FFF7D1FF280705D52368082282
:1009D00020465A61FFF7CAFFE90710D523681A6855
:1009E000920703D5DA6822F01E02DA60DA68204640
:1009F00022F00102DA6001225A61FFF7B8FF38BD28
:100A00004B09000803681821DAB223F47F73103A07
:100A100023F00303B2FBF1F20449032A895C88BF87
:100A20000433C1658365806D704700BF245300089F
:100A300070B50446FFF720FE0546002C71D0002358
:100A4000226884F83430022384F83530136823F0A8
:100A50000103136021680B68D8073CD40B68324D42
:100A600062681D40A368A0691343E26813432269CA
:100A7000134362691343E26903431343226A134336
:100A8000626A042A43EA050301BF266BE56A35431F
:100A90002B43042A0B604B6923F0070343EA02034C
:100AA0000BD1A26AE56A13433DB1F8B9012A2DD0F2
:100AB00001D3022A01D1EA012BD44B612046FFF772
:100AC000A1FFE26D3F239340836000200123606516
:100AD00084F8353070BDFFF7CFFD401B0528B9D92C
:100AE00020230320636584F8350070BDB0F5005FF6
:100AF00013D1032AE1D801A050F822F0130B00080B
:100B0000B70A0008130B00080D0B0008B5F1C07FF1
:100B1000D3D1402301206365E5E7022AF9D9032AEE
:100B2000C8E7012070BD00BF3F8010E070B590F8AD
:100B30003440012C35D00124866D002580F83440E6
:100B400090F83540012C4FF0020428D180F8354050
:100B500004684565256825F4802525606360836801
:100B6000402B19D1A260E160C26D3F239340B36076
:100B7000236843F016032360636943F080036361D5
:100B8000036C1BB1236843F0080323602368002033
:100B900043F00103236070BDA160E260E4E780F8E8
:100BA0003450022070BD90F83530022B03D08023E2
:100BB0004365012070470268052380F83530002026
:100BC000136823F001031360704700000023F7B59A
:100BD00001930822594B0446856D1F68C36D2E682A
:100BE0009A4016420CD001680868400708D508688A
:100BF00020F004000860AA60626D42F001026265A4
:100C000001229A40164208D021684969090604D594
:100C1000AA60626D42F00202626504229A401642A6
:100C200008D021680968880704D5AA60626D42F07F
:100C30000402626510229A40164210D02368196897
:100C400009070CD5AA601A68500335D51B6819032B
:100C500001D4236C00E0A36C0BB120469847E16DF2
:100C600020228A40164238D023681868C60634D538
:100C7000AA6094F83520052A1A6825D122F01602B8
:100C80001A605A6922F080025A61226C0AB9A26C79
:100C90001AB11A6822F008021A603F238B40AB6039
:100CA000002384F83430012384F83530236D0BB1F0
:100CB0002046984703B0F0BD1A68D205C9D41A6817
:100CC00022F008021A60C4E7500328D51B681903F4
:100CD00032D4636C0BB120469847636D002BE9D08A
:100CE000636DDA0719D50523226884F83530136857
:100CF00023F0010313604FF41653B7FBF3F7019B86
:100D000001339F42019302D31368DB07F7D400231A
:100D100084F83430012384F83530E36CC7E71A686F
:100D200012F4807208D1196821F0100119600123B2
:100D300084F8342084F83530E36BCBE70C000020D6
:100D400070B58668802E04D14FF48073436501200E
:100D500070BD90F83440012C00F0D48101240025AE
:100D600080F8344090F83540012C4FF0020440F0F8
:100D7000C78180F83540402E04684565256845F4F4
:100D8000802525602361049B63603FD1A260E16000
:100D9000B04B9C4242D918339C423AD0AE4A94425E
:100DA00039D01832944214BF4FF000624FF4001251
:100DB000AA499C42CA6040F0B38010229C42CA609B
:100DC00040F0E6800822A5499C42CA6040F01881A4
:100DD00004229C42CA6040F05F8101239F4AD36095
:100DE000236843F016032360636943F08003636163
:100DF000036C0BB9836C1BB1236843F008032360B9
:100E00002368002043F00103236070BDA160E2600D
:100E1000BEE72022CCE74FF40062C9E7904B9C422A
:100E20002AD903F556739C4221D08E4A944220D091
:100E30001832944214BF4FF000624FF400128749F9
:100E40009C428A607AD110229C428A6040F0AE8037
:100E5000082282499C428A6040F0E08004229C4241
:100E60008A6040F0268101237C4A9360B8E7202203
:100E7000E5E74FF40062E2E77B4B9C4228D9183348
:100E80009C4220D0794A94421FD01832944214BF19
:100E90004FF000624FF4001275499C42CA605BD16A
:100EA00010229C42CA6040F08F80082270499C4208
:100EB000CA6040F0C18004229C42CA6040F00681B2
:100EC00001236B4A8BE72022E6E74FF40062E3E759
:100ED000684B9C421FD0684A94421ED018329442FC
:100EE00014BF4FF000624FF4001261499C428A60C7
:100EF00040D110229C428A6074D108225C499C42F5
:100F00008A6040F0BB8004229C428A6040F0EB8003
:100F10000123574AA9E72022E7E74FF40062E4E7FC
:100F20004D4A944207D01832944214BF4FF0806269
:100F30004FF4801242E74FF480623FE7494A9442FF
:100F400007D01832944214BF4FF080624FF48012E1
:100F50007AE74FF4806277E7444A944207D0183228
:100F6000944214BF4FF080624FF4801299E74FF41F
:100F7000806296E7404A944207D01832944214BFE8
:100F80004FF080624FF48012B4E74FF48062B1E713
:100F9000314A944207D01832944214BF4FF0007285
:100FA0004FF400220FE74FF400720CE72D4A9442F1
:100FB00007D01832944214BF4FF000724FF4002251
:100FC00047E74FF4007244E7284A944207D01832AA
:100FD000944214BF4FF000724FF4002266E74FF4C2
:100FE000007263E7244A944207D01832944214BF37
:100FF0004FF000724FF4002280E74FF400727DE75B
:10100000154A944207D01832944214BF4FF08072B0
:101010004FF48022DDE64FF48072DAE6114A944202
:1010200007D01832944214BF4FF080724FF48022E0
:1010300015E74FF4807212E70C4A944207D0183239
:10104000944214BF4FF080724FF4802234E74FF483
:10105000807231E7586402408864024000640240B4
:10106000B860024028640240586002408860024034
:10107000006002401060024028600240224A944210
:1010800007D01832944214BF4FF080724FF4802280
:101090003AE74FF4807237E71C4B9C4207D0183375
:1010A0009C4214BF4FF480034FF4803396E64023F4
:1010B00094E6174B9C4207D018339C4214BF4FF460
:1010C00080034FF48033CFE64023CDE6114B9C42A2
:1010D00007D018339C4214BF4FF480034FF4803381
:1010E000EFE64023EDE6084B9C4207D018339C42C4
:1010F00014BF4FF480034FF480330AE7402308E71E
:1011000080F83450022070BD28600240886402409C
:101110002864024088600240036812B9D960002048
:1011200070471961FBE700002DE9F04F0B6885B0AF
:10113000DFF8C081019300236C4ADFF8BC914FF0C7
:10114000010E019C0EFA03FE0EEA0406B64540F0BD
:10115000B3804C6824F01007022F16D14FEAD30A4F
:1011600003F0070B4FF00F0C00EB8A0A4FEA8B0BD2
:10117000DAF820500CFA0BFC25EA0C0C0D6905FA84
:101180000BF545EA0C05CAF820504FEA430A03253F
:10119000D0F800B004F0030C05FA0AF5013F0CFA90
:1011A0000AFCED43012F0BEA050B4CEA0B0CC0F8CF
:1011B00000C011D8876807EA050BCF6807FA0AFC58
:1011C0004CEA0B078760476827EA0E0EC4F3001746
:1011D0009F4047EA0E074760C7683D408F6807FA9F
:1011E0000AF73D43C560E50066D5D8F8445023F0C2
:1011F000030703F0030E4FF00F0C45F4804507F191
:1012000080474FEA8E0EC8F8445007F59C37D8F84F
:10121000445005F480450395039D0CFA0EF5D7F86C
:1012200008A02AEA050C324DA8424CD005F580658D
:10123000A8424AD005F58065A84248D005F58065EA
:10124000A84246D005F58065A84244D0484544D020
:1012500005F50065A84242D005F58065A84240D05A
:1012600005F58065A8423ED005F58065A84214BF0B
:101270000A25092505FA0EF514F4803F45EA0C0508
:10128000BD606FEA060715680CBF3D40354314F496
:10129000003F156055680CBF3D40354314F4801F76
:1012A000556095680CBF3D403543A4029560D568F4
:1012B00054BF3D403543D5600133102B7FF43FAF21
:1012C00005B0BDE8F08F0025D4E70125D2E702255F
:1012D000D0E70325CEE70425CCE70525CAE7062598
:1012E000C8E70725C6E70825C4E700BF003C014062
:1012F0000000024000380240001402400369194215
:1013000014BF0120002070470AB1816170470904B1
:10131000FBE703689A69910701D500229A629A69EE
:10132000D20703D49A6942F001029A61704730B53E
:10133000039CC1F3090105682343640D686804F444
:101340008064194344F07F7441EA024144F4583404
:1013500044F47F7444F0030420EA040421436960E8
:1013600030BD2DE9F041069F0446884616461D46CD
:101370002268936938EA03030CBF01230023B342B8
:1013800002D00020BDE8F0816B1CF2D0FFF774F9A9
:10139000C01B854201D3002DEAD1636C012043F0CC
:1013A00020036364202384F84130002384F8423012
:1013B00084F84030BDE8F081036870B50446986950
:1013C0000D46164610F0100016D170BD691C14D0E1
:1013D000FFF752F9801B854200D36DB9636C43F06F
:1013E00020036364202384F841300023012084F823
:1013F000423084F8403070BD236899698A06E5D58B
:10140000102220252046DA61DD61FFF782FF226885
:10141000536823F0FF7323F48B3323F4FF7323F01B
:1014200001035360636C43F00403636484F8415028
:10143000DBE770B504460D46164623689B699B079B
:1014400001D5002070BD324629462046FFF7B4FF83
:10145000A0B96A1CF1D0FFF70FF9801B854201D3B8
:10146000002DEAD1636C43F020036364202384F8E9
:101470004130002384F8423084F84030012070BDB0
:1014800070B504460D46164623689B699B0601D538
:10149000002070BD324629462046FFF78DFF90B9E7
:1014A000FFF7EAF8801B854201D3002DECD1636C75
:1014B00043F020036364202384F84130002384F840
:1014C000423084F84030012070BD10B50446002839
:1014D0004AD090F8413003F0FF021BB980F8402059
:1014E00003F090F82423E16884F84130012923684F
:1014F0001A6822F001021A60626822F070621A61B2
:101500009A6822F400429A60A26824D142F4004210
:101510009A605A680020616942F0007242F4004209
:101520005A60DA6822F40042DA6022690A43A1694B
:1015300042EA0122216ADA60E2690A431A601A6803
:1015400042F001021A602023606484F84130206375
:1015500084F8420010BD42F4044202299A60D8D1B6
:101560004FF400625A60D4E7012010BD2DE9F74323
:10157000984690F8413004460E46202B914640F0A4
:10158000848090F84030012B7FD0012780F8407094
:10159000FFF772F81923054600903A464FF40041D0
:1015A0002046FFF7DEFE18B1012003B0BDE8F0834E
:1015B0002123C4F82490606384F84130102384F818
:1015C00042306064A4F82A80638D9BB2FF2B304BBD
:1015D00026D9FF22009322854FF0807331462046A2
:1015E000FFF7A5FE638D2A460A9920469BB2FBB9F8
:1015F000FFF746FF0028D7D123682021D9615A6818
:1016000022F0FF7222F48B3222F4FF7222F00102E8
:101610005A6084F8411084F8400084F84200C4E71E
:10162000628D009392B222854FF00073D2B2D5E75B
:10163000FFF7FFFE0028B7D1636A226813F8011B89
:1016400091626362638D228D013B013A9BB292B23B
:101650006385638D22859BB2002BC3D0002AC1D144
:10166000009580210A9B2046FFF77BFE00289BD136
:10167000638D9BB2FF2B03D9FF2200902285ABE73D
:10168000628D009092B22285CEE702208DE700BFE6
:101690000020008090F84120D2B2202A10B51DD140
:1016A00090F84030012B19D0242380F84130036892
:1016B0001C6824F001041C601C6824F480541C6025
:1016C0001C6821431960196841F001011960002369
:1016D00080F8412080F84030184610BD022010BD2F
:1016E00010B590F84140E4B2202C1CD190F8403065
:1016F000012B18D0242380F8413003681A6822F0A7
:1017000001021A601A6822F4706242EA012119602B
:101710001A6842F001021A60002380F8414080F804
:101720004030184610BD022010BD00002DE9F341E5
:10173000044618B9012002B0BDE8F0810368D8075B
:1017400010D4236899075ED42368190700F1A38099
:1017500023685A0700F1C480A269002A40F02E8154
:101760000020E8E7934B9A6802F00C02042A07D0A5
:101770009A6802F00C02082A0AD15B685A0207D55F
:101780008C4B1B689B03DCD56368002BD9D1D1E758
:101790006368884DB3F5803F11D12B6843F48033E3
:1017A0002B60FEF769FF834D06462B689F03C8D464
:1017B000FEF762FF801B6428F7D90320BBE79BB9C3
:1017C0002B6823F480332B602B6823F480232B6059
:1017D000FEF752FF06462B689803B2D5FEF74CFF82
:1017E000801B6428F7D9E8E7B3F5A02F2B6803D155
:1017F00043F480232B60D0E723F480332B602B68E5
:1018000023F48023CCE76B4B9A6812F00C0F07D0BF
:101810009A6802F00C02082A11D15B6859020ED4B2
:10182000644B1A68920702D5E268012A82D11A68CD
:10183000216922F0F80242EAC1021A6084E7E368F3
:101840005C4DBBB12B6843F001032B60FEF714FF26
:1018500006462B689F0707D52B68226923F0F803FB
:1018600043EAC2032B606FE7FEF706FF801B0228E6
:10187000EFD9A2E72B6823F001032B60FEF7FCFEF3
:1018800006462B6898077FF55FAFFEF7F5FE801BD5
:101890000228F6D991E76369464D83B16B6F43F037
:1018A00001036B67FEF7E8FE06466B6F9B073FF58B
:1018B0004FAFFEF7E1FE801B0228F6D97DE76B6F84
:1018C00023F001036B67FEF7D7FE06466B6F9F0799
:1018D0007FF53EAFFEF7D0FE801B0228F6D96CE7FD
:1018E000344B1A6CD00027D41A6C012642F0805277
:1018F0001A641B6C03F080530193019B2E4D2B68DF
:10190000D9051BD5A3682B4D012B27D12B6F43F095
:1019100001032B6741F28835FEF7AEFE254F804666
:101920003B6F9B073FD5002E3FF416AF214A136C47
:1019300023F0805313640FE70026DFE72B6843F49E
:1019400080732B60FEF798FE07462B68DA05D9D422
:10195000FEF792FEC01B6428F7D92EE7ABB92B6FB8
:1019600041F2883823F001032B672B6F23F0040327
:101970002B67FEF781FE07462B6F9807D3D5FEF73E
:101980007BFEC01B4045F7D917E7052B2B6F03D112
:1019900043F004032B67B9E723F001032B672B6F98
:1019A00023F00403B5E7FEF767FEA0EB0800A842AA
:1019B000B6D902E70038024000700040244DAB6801
:1019C00003F00C03082B3FF4B5AE2B68022A23F07A
:1019D00080732B602FD1FEF74FFE06462B689901CE
:1019E00023D4226AE3691343626A43EA8213E26AF8
:1019F00043EA0263226B43EA0273A26A144C520860
:101A0000013A43EA02436B602B6843F080732B601A
:101A1000FEF732FE054623689A013FF5A1AEFEF7B8
:101A20002BFE401B0228F6D9C7E6FEF725FE801BD9
:101A30000228D3D9C1E6FEF71FFE04462B689B019E
:101A40007FF58EAEFEF718FE001B0228F6D9B4E62D
:101A50000038024070B5204C88B00D461646236B06
:101A6000E0B943F0010303A92363236B059003F05E
:101A70000103079019480193019B4FF4807303936E
:101A80000223049303230693FFF74EFBA16821F082
:101A9000EC6131432943A16008B070BD43F00403F9
:101AA00003A90F482363236B03F004030293029BF3
:101AB0004FF400730393022304930323069300233C
:101AC00005930793FFF730FBA36845EAC60123F0AF
:101AD00078450D43A560DFE7003802400000024072
:101AE00000080240134908B58B6803F00C03042B6F
:101AF00003D0082B03D0104808BD104808BD4A6821
:101B00004B68496802F03F0213F48003C1F3881167
:101B10001ABF0A4800230848A1FB0001FEF7E8FBB2
:101B2000044B5B68C3F3014301335B00B0FBF3F08C
:101B300008BD00BF003802400024F40040787D0159
:101B40002DE9F0410D46044610B90120BDE8F081B1
:101B5000464A136803F00F038B4228D321688F078E
:101B600030D4C80743D4414A136803F00F039D42A1
:101B700067D32268510770D4130707D53C4A2169FF
:101B8000936823F4604343EAC1039360FFF7AAFF1D
:101B9000374B384A9B68C3F30313D35CD840364BAA
:101BA00018600020FEF72CFD0020BDE8F0811368CE
:101BB00023F00F030B431360136803F00F039942E4
:101BC000C3D1CBE711F0040F294B03D09A6842F43C
:101BD000E0529A600E0703D59A6842F460429A6018
:101BE0009A68A06822F0F00202439A60B9E761683F
:101BF0001F4B01291A681CD112F4003FA5D09A6826
:101C000041F288381A4E22F003020A439A60FEF726
:101C100033FD0746B368626803F00C03B3EB820F31
:101C2000A1D0FEF729FDC01B4045F3D90320BDE834
:101C3000F081022902D112F0007FDFE712F0020FDB
:101C4000DCE7136823F00F032B431360136803F0E2
:101C50000F039D427FF479AF8BE70549E0688B68FD
:101C600023F4E05303438B6086E700BF003C02404F
:101C700000380240585300080C000020044B054A6D
:101C80009B68C3F38223D35C034A1068D840704733
:101C900000380240685300080C000020044B054A3D
:101CA0009B68C3F34233D35C034A1068D840704743
:101CB00000380240685300080C0000202DE9F7436B
:101CC0000268044612F001060BD0BA4B996821F461
:101CD00000019960466B99683143B6FA86F6760939
:101CE000996012F4002512D0B249E56BD1F88C301E
:101CF000B5F5801F23F4401308BF012643EA05030E
:101D000016BFB5FA85F500256D09C1F88C30D702EC
:101D100010D5A848216CD0F88C30B1F5800F23F491
:101D2000400343EA0103C0F88C3000F0A981002988
:101D300008BF012512F0807F18BF0126900631D51B
:101D40009C4B9D4F1A6C42F080521A641B6C03F03E
:101D500080530193019B3B6843F480733B60FEF723
:101D60008BFC80463B68D90540F18C81914F3B6FDD
:101D700013F4407340F09181236B03F44072B2F589
:101D8000407F8C4A40F0AF81916823F0704021F48D
:101D9000F81120F4407001439160C3F30B03116FFD
:101DA0000B4313672368DF060CD5824AD2F88C10E8
:101DB00021F08071C2F88C10D2F88C10A06B014316
:101DC000C2F88C10580408D57A49606ED1F890207A
:101DD00022F440320243C1F89020190408D5754915
:101DE000A06ED1F8902022F440220243C1F8902046
:101DF000DA0308D56F49E06ED1F8902022F4401242
:101E00000243C1F890209F0308D56A49206FD1F89A
:101E1000902022F440020243C1F89020580608D5D1
:101E20006449606CD1F8902022F003020243C1F8AB
:101E30009020190608D55F49A06CD1F8902022F0B7
:101E40000C020243C1F89020DA0508D55949E06C2C
:101E5000D1F8902022F030020243C1F890209F0573
:101E600008D55449206DD1F8902022F0C0020243D9
:101E7000C1F89020580508D54E49606DD1F89020E2
:101E800022F440720243C1F89020190508D549494F
:101E9000A06DD1F8902022F440620243C1F8902056
:101EA000DA0408D54349E06DD1F8902022F440527D
:101EB0000243C1F890209F0408D53E49206ED1F816
:101EC000902022F440420243C1F89020580208D5E5
:101ED0003849A06FD1F8902022F080620243C1F807
:101EE000902099020CD53348E16FD0F89020B1F1E1
:101EF000006F22F0006208BF01250A43C0F890205D
:101F000013F0080F18BF01255A0308D52949606F3F
:101F1000D1F8902022F040720243C1F890201F02B5
:101F200009D52449D4F88000D1F8902022F08052BD
:101F30000243C1F89020580109D51E49D4F8840005
:101F4000D1F8902022F000520243C1F890201901EC
:101F500009D51849D4F88800D1F88C2022F00072F5
:101F60000243C1F88C20DA0009D51249D4F88C005C
:101F7000D1F88C2022F080620243C1F88C20012E1F
:101F800000F0B580B3F1007F00F0B180012D75D174
:101F9000084D2B6823F080532B60FEF76DFB06463F
:101FA0002B689F0000F1278121680E0306D5E36BA3
:101FB00043B103E00038024000700040CD021DD55F
:101FC000236CDBB9934AD2F88830D2F8880003F446
:101FD000403300F0E0400343606943EA8013A069A6
:101FE00043EA0063C2F88830D2F88C30A06A23F448
:101FF000F853013843EA0023C2F88C30880215D523
:10200000E36FB3F1006F11D1824AD2F88830D2F871
:10201000880003F0706300F0E0400343606943EA26
:102020008013206A43EA0043C2F888300A0719D5B2
:102030007849D1F88820D1F8883002F0706203F432
:1020400040331343626943EA8213E26943EA02734D
:10205000C1F88830D1F88C30E26A23F4403313435E
:10206000C1F88C306B4C236843F080532360FEF73B
:1020700003FB054623689B0040F1C480002009E073
:10208000012657E6FEF7F8FAA0EB080064287FF671
:1020900069AE032003B0BDE8F083226B02F4407206
:1020A00093423FF469AE3B6F3A6F23F4407342F4BE
:1020B00080323A673A6F22F480323A673B673B6F6F
:1020C000DA077FF559AEFEF7D7FA41F28839804634
:1020D0003B6F9B073FF550AEFEF7CEFAA0EB080032
:1020E0004845F5D9D5E7916821F4F81154E6494EF1
:1020F000336823F080633360FEF7BEFA0746336827
:102100001B0172D42268D70712D5636B83B9D6F846
:102110008430D6F8841003F4403301F070610B432F
:10212000616843EA8113A16843EA0173C6F8843009
:10213000160303D5E36BB3F5801F05D0D0021ED57F
:10214000236CB3F5800F1AD13249D1F88430D1F81D
:10215000840003F4403300F0E0400343606843EA46
:102160008013E06843EA0063C1F88430D1F88C0042
:10217000636A20F01F00013B0343C1F88C30D1019A
:1021800011D52449D1F88430D1F8840003F070636C
:1021900000F0E0400343606843EA8013206943EAAB
:1021A0000043C1F8843092010DD5236962681B0495
:1021B00043EA8213E26843EA0263A26843EA0273D5
:1021C000144AC2F88430134E336843F0806333609E
:1021D000FEF752FA074633681B013FF5D7AEFEF70C
:1021E0004BFAC01B6428F6D953E7FEF745FAC01B2B
:1021F000642884D94DE7FEF73FFA801B64287FF6F8
:10220000CFAE46E7FEF738FA401B64287FF632AFC0
:102210003FE700BF003802402DE9F043054689B092
:102220000E46FEF729FA002381460821286800930C
:10223000019301F0F8FB044640BB296D28680904AE
:1022400001F0FCFC044608BB4FF0FF33069002A9E6
:1022500028680293082303933023049302230593F1
:102260000123079301F0CCFB286801F018FD044618
:1022700060B9074640F22A482868436B13EA080F02
:10228000436B07D0190718D508248463204609B08A
:10229000BDE8F0839B0207D501F0F6FA08AB03EB2B
:1022A0008703013743F8200CFEF7E6F9A0EB09009D
:1022B0000130E1D14FF00044E8E7436B9A0701D5C4
:1022C0000224E2E7436B9B0601D52024DDE740F2C0
:1022D000FF538363009B1BBA7360019B1BBA33607F
:1022E000D4E72DE9F04F0D4687B004469146984655
:1022F000109EFEF7C1F907462DB9A36B43F00063AA
:10230000A363012010E094F83400C0B2012840F02B
:10231000C18009EB0803E26D00219342A16306D955
:10232000A36B43F00073A36307B0BDE8F08F0323F2
:10233000206884F83430636CC1624FF40071012B63
:1023400018BF4FEA492901F06EFB50B1236840F2F3
:10235000FF529A63A36B1843A063012084F83400F2
:10236000E2E74FF0FF334FF0010A4FF0020B049009
:1023700000934FEA48236946206801939023CDF8E3
:102380000CB00293CDF814A001F03AFBD04525D94A
:10239000C4F830B04946206801F075FB0028D5D15B
:1023A0002068436B13F4957F436B1ED0DB0509D582
:1023B000B8F1010F06D9636C032B03D001F0ACFB1D
:1023C0000028C3D123685A6B100730D540F2FF5262
:1023D0009A63A36B43F00803A363BEE7C4F830A07D
:1023E0004946206801F037FBD8E71A040BD5A5F160
:1023F000040905F11C0A206801F046FA49F8040FA7
:10240000D145F8D1203566B9236840F2FF52032048
:102410009A63A36B43F00043A363012384F8343031
:1024200082E7FEF729F9C01B8642B9D8ECE75A6B60
:10243000910706D540F2FF529A63A36B43F0020363
:10244000CAE75A6B920618D540F2FF529A63A36B03
:1024500043F02003C0E701F017FA45F8040B3EB93A
:10246000236840F2FF529A63A36B43F00043B3E743
:10247000FEF702F9C01B8642F2D92068436B13F4C1
:102480000013E8D140F2FF5282630122184684F81B
:10249000342049E7A36B43F0005331E72DE9F043C3
:1024A0000D4687B0044691461E460E9FFEF7E4F89F
:1024B00080462DB9A36B43F00063A363012010E0B5
:1024C00094F83400C0B2012840F09D8009EB060367
:1024D000E26D00219342A16306D9A36B43F0007320
:1024E000A36307B0BDE8F0830323206884F8343089
:1024F000636CC1624FF40071012B18BF4FEA492988
:1025000001F091FA50B1236840F2FF529A63A36B35
:102510001843A063012084F83400E2E7012E33D988
:10252000202349462068236301F0DDFA0028EAD120
:102530004FF0FF33039004906946009373022068C4
:102540000193902302930123059301F059FA206827
:10255000436B13F48D7F436B1DD0DD0508D5012E31
:1025600006D9636C032B03D001F0D6FA0028CAD138
:1025700023685A6B11072DD540F2FF529A63A36B63
:1025800043F00803A363C5E710234946206823638B
:1025900001F091FACAE75B0409D5A94620354946FE
:1025A00009F10409206801F072F94D45F7D157B9D6
:1025B000236840F2FF5203209A63A36BA3630123B5
:1025C00084F834308DE7FEF757F8A0EB0800874217
:1025D000BDD8EDE75A6B920706D540F2FF529A63D9
:1025E000A36B43F00203CDE7586B40F2FF5210F0AB
:1025F00010009A6303D0A36B43F01003C2E70123DA
:1026000084F834306DE7A36B43F0005355E770470F
:10261000436E9A0F0A70C3F383624A70C3F3016278
:102620008A70C3F30742CA70C3F30722DBB20A7190
:102630004B71836E1A0E1201CA80CA8830B592B2ED
:10264000C3F303542243CA80C3F303420A72C3F3A1
:102650000722D4094C72C2F380148C72C2F3401466
:10266000CC72C2F300140C7300244C73446C002C25
:1026700040F0838092029B0002F4406203F47F7377
:102680000A610A691343C26E0B610B6943EA9273D4
:102690000B61C2F3C2630B75C2F302634B75C2F3E5
:1026A00042538B75C2F38243CB75D30B03F0060301
:1026B0000B76C2F307230C7EC2F3C03222430A76A4
:1026C0000A690C7E01320234A240012442650D7A6F
:1026D000AC408465640A6243C2654FF400720266CE
:1026E000C3F380125B004A7603F07E038B76C36EE1
:1026F0008A7EC3F3C01403F07F0322438A76CB762D
:10270000036FDA0FC3F381500A77C3F341724A773C
:10271000C3F382628A779A0D02F00C02CA77CA7FED
:1027200002430020CA77C3F3405281F82020C3F34C
:10273000004281F8210081F82220C3F3C03281F8E1
:102740002320C3F3803281F82420C3F3403281F880
:102750002520C3F3003281F82620C3F3812281F8BB
:102760002720C3F30122C3F3460381F8282081F810
:102770002930012381F82A3030BD012C1AD11B04E5
:1027800003F47C130B61C36E0A691C0E42EA042237
:102790000A61C3F307420C69C3F3072322430A61AA
:1027A0000A69920202F580624265C2654FF40072C6
:1027B000826594E7036840F2FF529A63836B43F0AB
:1027C00080538363012380F83430184630BD70B5E0
:1027D000762398B0002504460C930AAB0A950B9516
:1027E00007950895099593E8070007AB8DE8070062
:1027F00020680ECB01F02CF82068436823F4807326
:10280000436001F049F822680220536843F4807362
:102810005360FDF737FF2068069501F0AFF90646D3
:1028200068B9206801F0D2F980B34FF6FF75A6644D
:10283000069B5A1CAB42069208D14FF080760120CD
:1028400084F83400A16B0E43A66383E00021206866
:1028500001F0F4F9014610B14FF08056EFE720681F
:1028600001F004FA01460028F6D1206801F02FF8A3
:102870000028DDDA0023636401232068ADF81630F8
:1028800001F00EF820BB4FF080656DE001234FF69C
:10289000FF75A364069B5A1CAB420692CDD0002163
:1028A000206801F0CBF906460028C8D14FF08041DE
:1028B000206801F0DBF906460028C0D101462068F7
:1028C00001F005F80028E5DA4300D3D50123D2E76B
:1028D000636C032B1AD0206801F0F9F90546002833
:1028E00042D10146206800F0F2FF042160672068B1
:1028F00000F0EDFF0821A067206800F0E8FF0C2140
:10290000E067206800F0E3FFC4F88000636C032BED
:1029100022D1636C032B2ED10421206800F0D7FF55
:102920000DA9000DE0642046FFF772FE226D002322
:102930002068120401F00AF90546A8B904F1100351
:1029400093E80700231D8DE8070020680ECB00F0F8
:102950007FFF284618B070BD0DF11601206801F008
:10296000E1F905460028D4D0012084F83400A36B97
:102970001D43A563EEE7BDF8161020682165090424
:1029800001F0BAF905460028EED10146206800F0B2
:102990009EFF04216066206800F099FF0821A06670
:1029A000206800F094FF0C21E066206800F08FFFA3
:1029B0002067B1E710B50446A0B190F8343003F0B9
:1029C000FF0213B9027701F051FE0323204684F879
:1029D0003430FFF7FCFE00200123A063206384F85D
:1029E000343010BD012010BD436C0B60836C4B6014
:1029F000C36C8B60036DCB60436D0B61836D4B616A
:102A0000C36D8B61036E0020CB617047032370B5EB
:102A100080F834308AB0436C04460E46032B02D053
:102A2000B1F5805F03D1A36B43F0805356E0B1F55D
:102A3000006F2DD1002100680491059100F047FF3F
:102A4000800120D404A92046FFF7E6FB60B9059B6E
:102A500059031AD5216D2068090401F0EFF818B95F
:102A60000221206801F0E2F9A36B1843A063A56B73
:102A7000002D35D0236840F2FF5201209A6384F87C
:102A800034000AB070BD3046EEE74FF08060EBE7EF
:102A900009BB00680491059100F019FF820114D46C
:102AA00004A92046FFF7B8FB60B9059BDB030FD5EF
:102AB000216D2068090401F0C1F818B901462068A9
:102AC00001F0B4F9A16B0843D0E74FF40060F9E7D7
:102AD0004FF08060F6E7836B43F00063A363C6E7C3
:102AE000636807960493A3680593E3680693636994
:102AF0000893A36909930AAB13E9070004AB8DE8B7
:102B0000070020680ECB00F0A3FE0123284684F8BE
:102B10003430B6E7016D10B509040446006801F0D1
:102B200055F9014628B9206800F0D1FEC0F34320D2
:102B300010BDA36B00201943A163F7E738B5846B80
:102B4000236C0BB100232364E56BC5B92046FFF766
:102B5000E1FF05380123A563C0B284F83430984200
:102B60000DD8206800F0D8FFA36B1843A06320465F
:102B7000A36B13B101F0B3F938BDFFF748FD38BDC1
:102B800038B5846BE36B0BB10023E363256CC5B9E7
:102B90002046FFF7BFFF05380123A563C0B284F8C4
:102BA000343098420DD8206800F0B6FFA36B18436C
:102BB000A0632046A36B13B101F091F938BDFFF774
:102BC00026FD38BD70B504460068436BDB054DD566
:102BD0004FF480738363C36B23F49D73C363236BD0
:102BE00013F0080F236B1ED09E0702D4236B9D06A3
:102BF00008D500F091FF28B1A36B1843A0632046CD
:102C0000FFF705FD236840F2FF5220469A63012337
:102C100084F83430236BD90702D4236B9A0722D56A
:102C200001F067F970BD1B0640F19B80236B9E0687
:102C300008D500F071FF28B1A36B1843A0632046AC
:102C4000FFF7E5FC236BDD0700F18B80236B980712
:102C500000F1878022682046D36A23F00803D362FC
:102C6000012384F8343001F03FF970BD436B5904FF
:102C700010D5256A4FF4804305F120068363294669
:102C80000435206800F003FEAE42F8D1236A2033F9
:102C9000236270BD436B1A0410D5A56A4FF400433C
:102CA0002E1F1C358363206800F0EEFD46F8040FEC
:102CB000AE42F8D1A36A2033A36270BD436B13F018
:102CC0003A0F4ED0436B9B0703D5A36B43F002032F
:102CD000A363436B1E0703D5A36B43F00803A363F1
:102CE000436B9D0603D5A36B43F02003A363436BA3
:102CF000D90603D5A36B43F01003A36340F2FF533F
:102D00008363C36B23F49D73C363236B1A061FD5C0
:102D1000206C48B1134B0365FDF745FF08B3206CE9
:102D2000BDE87040FFF70ABFE06B48B10E4B03658A
:102D3000FDF739FFA8B1E06BBDE87040FFF720BF99
:102D40000123A063204684F8343001F0C8F870BD38
:102D5000236B1B0705D50123204684F83430FFF789
:102D600056FC70BD3D2B0008812B00080368DA6813
:102D700042F00102DA60074A99680A40062A06D042
:102D8000B2F5803F03D01A6842F001021A600020B9
:102D9000704700BF070001007047704770477047D9
:102DA000704703681A69910710B504460FD5DA68B1
:102DB00092070CD56FF002021A6101229B6902771B
:102DC000990700F08580FFF7E9FF00232377236848
:102DD0001A69520710D5DA6850070DD56FF0040252
:102DE00020461A6102229B69227713F4407F75D036
:102DF000FFF7D4FF0023237723681A6911070FD543
:102E0000DA6812070CD56FF0080220461A61042216
:102E1000DB6922779B0767D0FFF7C0FF002323778A
:102E200023681A69D00610D5DA68D1060DD56FF07F
:102E3000100220461A610822DB69227713F4407FD2
:102E400058D0FFF7ABFF0023237723681A69D20716
:102E500008D5DA68D00705D56FF0010220461A615F
:102E6000FFF79AFF23681A69110608D5DA68120677
:102E700005D56FF0800220461A6100F08EF92368B4
:102E80001A69D00508D5DA68110605D56FF4807285
:102E900020461A6100F082F923681A69520608D5A3
:102EA000DA68500605D56FF0400220461A61FFF738
:102EB00077FF23681A69910622D5DA6892061FD532
:102EC0006FF0200220461A61BDE8104000F064B99E
:102ED000FFF763FF2046FFF762FF76E7FFF75DFF2E
:102EE0002046FFF75CFF85E7FFF757FF2046FFF717
:102EF00056FF93E7FFF751FF2046FFF750FFA2E789
:102F000010BD0000304A0368904212D0B0F1804FEB
:102F10000FD0A2F57C4290420BD002F58062904225
:102F200007D002F58062904203D002F578429042C9
:102F300019D14A6823F070031343234A904229D0E1
:102F4000B0F1804F26D0A2F57C42904222D002F50B
:102F5000806290421ED002F5806290421AD002F543
:102F60007842904216D0194A904213D002F58062FE
:102F700090420FD002F5806290420BD0A2F59832B9
:102F8000904207D002F58062904203D002F5806241
:102F9000904203D123F44073CA6813434A6923F073
:102FA0008003134303608B68C3620B688362064B24
:102FB000984203D003F58063984201D10B69036303
:102FC00001234361704700BF000001400040014001
:102FD00010B50446A0B190F83D3003F0FF021BB9D4
:102FE00080F83C2001F004FC02232068211D84F8B5
:102FF0003D30FFF787FF0123002084F83D3010BDEE
:10300000012010BD10B50A43846842EA032324F46A
:103010007F442343836010BD90F83C30012B70B592
:1030200004464FF0020017D084F83D0001232068C9
:1030300084F83C308268414B134083600B68402B1E
:1030400065D015D8102B0CD007D853B10123002020
:1030500084F83D3084F83C0070BD202B01D0302B2B
:10306000F4D1826843F0070322F0700213431AE0A0
:10307000602B34D019D8502BE8D14A68CE68016A49
:10308000056A21F00A0125F001050A4305628369FA
:1030900023F0F00343EA061383610262836823F09E
:1030A000700343F057038360D0E7702B0CD0B3F567
:1030B000005FCBD1CB684A688968FFF7A3FF22681D
:1030C000936843F4804308E0CB684A688968FFF757
:1030D00099FF2268936843F077039360B6E74D68E1
:1030E000CE68016A21F0100101628269036A22F44C
:1030F000704223F0A00342EA063243EA05138261DC
:103100000362836823F0700343F06703CBE74A68E8
:10311000CE68016A056A21F00A0125F001050A431B
:103120000562836923F0F00343EA061383610262B8
:10313000836823F0700343F04703B4E78800FEFF81
:1031400090F83C30012B4FF0020330B51FD00268DD
:10315000104D80F83D30AA425368946803D005F5BD
:103160008065AA4203D123F470034D682B430D6898
:1031700023F07003896824F080042B4321435360BB
:103180000123916080F83D30002380F83C301846E0
:1031900030BD00BF000001407047704770470368B2
:1031A0001A6822F490721A609A6822F001029A60FA
:1031B0002023836700230366704770477047000031
:1031C0000368DA69196870B5160704469D6809D165
:1031D000950663D58E0661D5036E002B75D0BDE8CC
:1031E0007040184715F0010002D111F4907F55D0BE
:1031F000D50707D5CE0505D501251D62E56F45F03C
:103200000105E567950706D528B102251D62E56F22
:1032100045F00405E567560706D528B104251D626B
:10322000E56F45F00205E567150707D58E0600D462
:1032300020B108201862E36F0343E367E36F002BBC
:1032400043D0950605D5880603D5236E0BB12046DD
:10325000984722682046E56F9268510602D415F01F
:10326000080517D0FFF79BFF23689A6852060DD513
:103270009A68E06E22F040029A6038B1134B036501
:10328000FDF791FC08B3E06E036DA8E72046FFF759
:1032900095FF70BDFFF792FFE56770BD160605D577
:1032A0000D0603D5636E83B1204698E750060CD512
:1032B0004A060AD51A68204622F040021A602023E6
:1032C000636700236366FFF778FF70BDD1320008A3
:1032D00008B5806B0023A0F85A30A0F85230FFF7F1
:1032E0006DFF08BD38B5C26904460368816800698E
:1032F0001D68014360690143904811432840256AD5
:103300000143E0681960596821F440510143596054
:10331000A1699868294320F4306001439960884985
:103320008B4217D1874B8849D3F8903003F00303C1
:10333000B2F5004FCB5C29D1082B00F29D80DFE86D
:1033400013F08C00E800EE009B00FA009B009B004D
:103350009B0076007D498B4206D17A4B7C49D3F89D
:10336000903003F00C03E3E77A498B421DD1754B93
:10337000D3F8903003F03003102B00F0D9800ED832
:10338000002B67D0B2F5004F76D01023082B73D8EE
:10339000DFE803F0999FA272B4727272B700202B1B
:1033A00000F0BA80302B3FD0ECE76B498B420DD157
:1033B000644BD3F8903003F0C003402B00F0B8808A
:1033C000DED9802B00F0A880C02BECE763498B424C
:1033D00010D15C4BD3F8903003F44073B3F5807F89
:1033E00000F0A680CCD9B3F5007F00F09580B3F54E
:1033F000407FD8E75A498B421ED1524BD3F89030C8
:1034000003F44063B3F5806F00F0928006D8002B80
:103410007CD0B2F5004F2FD110238DE7B3F5006FAC
:103420007AD0B3F5406FF4D1B2F5004F69D163683B
:10343000580800F5803078E04A498B4224D1414B4E
:10344000D3F8903003F44053B3F5805F70D015D8B3
:10345000002BDED1B2F5004F35D1FEF70FFC6268CC
:10346000530803EB4000B0FBF2F080B24FF6EF736D
:10347000A0F110029A421AD9012020E0B3F5005FB2
:103480004AD0B3F5405FCEE737498B42F4D12D4B9C
:10349000D3F8903003F44043B3F5804F48D07FF623
:1034A0006FAFB3F5004F37D0B3F5404F7BE720F057
:1034B0000F03C0F3420022681843D06000200023AD
:1034C0002366636638BDFEF7D9FB636800EB5300E3
:1034D00008E0FEF7E3FBF8E76368580800F57400BE
:1034E00000F51050B0FBF3F080B24FF6EF73A0F18F
:1034F00010029A42C0D82368D860DFE7FEF7F2FADC
:10350000E3E76368580800F50040EBE7B2F5004FC9
:10351000DFD1FEF7C3FBA2E7B2F5004FDCD1636851
:10352000580800F1F47000F59040B0FBF3F09CE710
:10353000B2F5004FE2D1FEF7D5FA90E7F369FFEF5D
:1035400000100140003802402C53000800440040A5
:103550003053000800480040004C0040005000403C
:103560000014014000780040007C0040436ADA0704
:1035700010B506D50168846A4A6822F400322243F5
:103580004A609C0706D50168C46A4A6822F4803202
:1035900022434A60590706D50168046B4A6822F441
:1035A000802222434A601A0706D50168446B4A68A4
:1035B00022F4004222434A60DC0606D50168846B8F
:1035C0008A6822F4805222438A60990606D50168EF
:1035D000C46B8A6822F4005222438A605A0610D5CE
:1035E0000168046C4A68B4F5801F22F4801242EA34
:1035F00004024A6005D14A68446C22F4C0022243A6
:103600004A601B0606D50268816C536823F40023C8
:103610000B43536010BD2DE9F041069D04460F4653
:10362000164698462168CA6937EA02030CBF012290
:103630000022B24202D00020BDE8F0816B1CF2D023
:10364000FDF71AF8A0EB0800854201D3002DE9D15F
:10365000236803201A6822F4D0721A609A6822F054
:1036600001029A6020236367A367002384F8703007
:10367000BDE8F0812DE9F7439846436F04460E46B6
:10368000202B91464BD1002947D0002A45D090F8F5
:103690007030012B43D00123002580F870302123A6
:1036A000C5674367FCF7E8FFA3680746A4F8509096
:1036B000B3F5805FA4F8529003D123690BB9354666
:1036C0001E46B4F852203B46CDF8008092B24AB96B
:1036D00040212046FFF79FFF50B9202384F8700057
:1036E000636706E0002280212046FFF794FF18B1AF
:1036F000032003B0BDE8F08322685EB935F8023BD1
:10370000C3F308039362B4F85230013B9BB2A4F8B0
:103710005230D6E716F8013BF4E70120E9E7022032
:10372000E7E737B500250446C567FCF7A5FF226823
:1037300003461268120707D420230020636784F829
:103740007000A36703B030BD6FF07E424FF40011EC
:10375000204600922A46FFF75EFF0028ECD00320A7
:10376000F0E710B5044640B3436F1BB980F87030E2
:1037700001F05CF82268242320466367136823F075
:1037800001031360FFF7AEFD012816D0636A13B181
:103790002046FFF7EBFE236820465A6822F4904249
:1037A0005A609A6822F02A029A601A6842F001026E
:1037B000BDE810401A60FFF7B4BF012010BD000043
:1037C000114B4FF4FA521B68B3FBF2F241F288330B
:1037D000534313F1FF3314D3426B12F0450FF8D06B
:1037E000436B5B0703D50423836318467047436B21
:1037F00013F0010301D00123F6E740F2FF52826388
:10380000F3E74FF00043F0E70C0000200F4B4FF4BC
:10381000FA521B68B3FBF2F241F28833534313F1BF
:10382000FF330FD3426B12F0450FF8D0436B13F008
:10383000040303D0042383631846704740F2FF5209
:103840008263F9E74FF00040704700BF0C00002092
:1038500084B010B503AC84E80E000499039B426861
:103860000B43059922F4FD420B43069922F07F0297
:103870000B4307990B4308990B43BDE810401343D2
:1038800004B0436000207047D0F8800070470B6898
:10389000C0F8803000207047032303600020704789
:1038A000006800F0030070470B6810B583608C68F7
:1038B0004B68C2682343CC6822F47F6209692343C2
:1038C00022F00F020B431343C360002010BD1430DD
:1038D00082B00023014401930191019B186802B05A
:1038E00070470000444B10B51B684FF4FA54B3FB0B
:1038F000F4F35A43002A49D0436B013A13F0450FC1
:10390000F8D0436B5C0703D504238363184610BDCE
:10391000436B13F0010301D00123F6E70269D2B231
:10392000914236D140F2FF5219468263FFF7CFFF32
:10393000324B0340002BE9D000282CDB42002DD471
:1039400084002DD4C1002DD402012ED444012FD4E3
:10395000C10130D4020231D4440232D4810233D4C2
:10396000C20234D4440335D4810336D4C20337D4DD
:10397000040438D4410439D482043AD410F0080F36
:1039800014BF4FF400034FF48033BFE74FF0004300
:10399000BCE70123BAE74FF00073B7E74023B5E770
:1039A0008023B3E74FF48073B0E74FF40073ADE7C3
:1039B0004FF48063AAE74FF40063A7E74FF4805306
:1039C000A4E74FF40053A1E74FF480439EE74FF480
:1039D00000439BE74FF4003398E74FF4802395E7CB
:1039E0004FF4002392E74FF480138FE74FF4001356
:1039F0008CE74FF4800389E70C00002008E0FFFD0E
:103A00000B6810B543624B68CC6883628B68C26AEE
:103A100023430C69496922F0F70223430B43134304
:103A2000C362002010BD30B5402387B01024054686
:103A300003930023019101A904934FF4806302943E
:103A40000593FFF731FF41F2883221462846FFF700
:103A500049FF07B030BD30B5402387B0112405467B
:103A600003930023019101A904934FF4806302940E
:103A70000593FFF719FF41F2883221462846FFF7E8
:103A800031FF07B030BD30B5402387B01224054662
:103A900003930023019101A904934FF480630294DE
:103AA0000593FFF701FF41F2883221462846FFF7D0
:103AB00019FF07B030BD30B5402387B01824054644
:103AC00003930023019101A904934FF480630294AE
:103AD0000593FFF7E9FE41F2883221462846FFF7B9
:103AE00001FF07B030BD30B5402387B0192405462B
:103AF00003930023019101A904934FF4806302947E
:103B00000593FFF7D1FE41F2883221462846FFF7A0
:103B1000E9FE07B030BD000030B5002387B00C24AB
:103B200040220193054604934FF4806301A9039258
:103B300005930294FFF7B8FE034A21462846FFF793
:103B4000D1FE07B030BD00BF00E1F50530B5402320
:103B500087B0072405460393002301A9019204932B
:103B60004FF4806302940593FFF79EFE41F2883282
:103B700021462846FFF7B6FE07B030BD10B500233A
:103B800086B00446019301A90293039304934FF472
:103B900080630593FFF788FE0B4B4FF4FA521B68C6
:103BA000B3FBF2F241F28833534313F1FF3308D3EE
:103BB000626B1206F9D540F2FF530020A36306B0F2
:103BC00010BD4FF00040FAE70C00002010B54FF494
:103BD000D57386B004460193082301A902934023BC
:103BE0000393002304934FF480630593FFF75CFE77
:103BF000114B4FF4FA521B68B3FBF2F241F28833D7
:103C0000534313F1FF3314D3626B12F0450FF8D016
:103C1000626B12F0040204D040230420A36306B0B8
:103C200010BD606B10F04000F9D040231046A36334
:103C3000F5E74FF00040F2E70C00002030B54023DC
:103C400087B03724054603930023019101A904930B
:103C50004FF4806302940593FFF726FE41F2883209
:103C600021462846FFF73EFE07B030BD10B5292398
:103C700086B041F0004104460293402341F4801194
:103C800003930023019101A904934FF480630593EA
:103C9000FFF70AFE2046FFF7B9FD06B010BD30B5AC
:103CA000002387B0332440220193054604934FF448
:103CB000806301A9039205930294FFF7F5FD41F299
:103CC000883221462846FFF70DFE07B030BD10B5FB
:103CD000002386B002220446019301A90292C02269
:103CE00004934FF4806303920593FFF7DDFD2046B4
:103CF000FFF766FD06B010BD10B5092386B0044677
:103D00000293C023019101A90393002304934FF46C
:103D100080630593FFF7C8FD2046FFF751FD06B00D
:103D200010BD000030B5002387B003220D4601937B
:103D300001A90292402204934FF480630392044647
:103D40000593FFF7B1FD204B4FF4FA521B68B3FB0C
:103D5000F2F241F28833534313F1FF332BD3626BFA
:103D600012F0450FF8D0636B5A0703D50420A06307
:103D700007B030BD616B11F0010101D00120F6E701
:103D80002369DBB2032B19D140F2FF532046A36312
:103D9000FFF79DFD10F4604303D1000C2880184606
:103DA000E6E743040CD410F4004F14BF4FF48050E6
:103DB0004FF48030DCE74FF00040D9E70120D7E72F
:103DC0004FF40050D4E700BF0C00002030B5402372
:103DD00087B00D24054603930023019101A90493A4
:103DE0004FF4806302940593FFF75EFD41F2883241
:103DF00021462846FFF776FD07B030BD30B5402399
:103E000087B00624054603930023019101A904937A
:103E10004FF4806302940593FFF746FD41F2883228
:103E200021462846FFF75EFD07B030BDFFF7E6BF2D
:103E30000F4B30B55D7A05F0FF04B5B95D7A5C557E
:103E40005D7A03EB85056860587A184402725A7AE5
:103E5000D2B2501C3032C0B258723A230A70204697
:103E60004B702F23CC708B7030BD012030BD00BF54
:103E7000900000200022FFF7DBBF000007B5009391
:103E800013460A4601460448FEF72BFA003018BFD5
:103E9000012003B05DF804FBA422002007B50093C5
:103EA00013460A4601460448FEF7F8FA003018BFE8
:103EB000012003B05DF804FBA422002008B50348EC
:103EC000FEF728FE043818BF012008BDA4220020F8
:103ED00001460148FEF788BDA4220020704708B5BE
:103EE000FFF7FCFF08BD704708B5FFF7FCFF08BDF2
:103EF000704708B5FFF7FCFF08BD012307B58DF833
:103F0000073000F02DF808B98DF807009DF807007C
:103F100003B05DF804FB000008B5FFF7EEFF0128D1
:103F20000CD10748FEF746FD48B94FF4006104483C
:103F3000FEF76CFD003018BF012008BD022008BD4F
:103F4000A422002008B503490348FFF793FF034B61
:103F5000187008BDAD00002044530008AC000020DC
:103F600008B54FF480710348FDF7C8F9B0FA80F046
:103F7000400908BD001002401FB500238DF80D1048
:103F800003AA42218DF80E3064238DF80C000093B3
:103F900003230348FDF7EAFA05B05DF804FB00BF10
:103FA0001821002070B588B000240D4E024604ADE3
:103FB0000C49284600F08CFD2846FCF741F9A04248
:103FC00001D808B070BD2B5D43B18DF800300122DF
:103FD0004FF47A7369463046FFF74CFB0134EBE748
:103FE000C42100203D53000830B5B9B0342200216F
:103FF000002407A8022500F063FD1422002102A876
:1040000000F05EFD0021902214A800F059FD244B21
:1040100007A81A6C42F080521A641B6C214A03F004
:1040200080530093009B136823F4404343F4804380
:1040300013601368079503F440430D950E940193A4
:10404000019B01230A9310230B930F934FF4C87322
:104050001093042311930A231293FDF767FB0F2398
:10406000032102A8039502934FF4C05304940593CF
:104070004FF480530693FDF763FD0B4B14A8279470
:1040800014934FF40003339430933494FDF716FEE9
:10409000224621462046FDF7DDFC39B030BD00BF89
:1040A00000380240007000400001A2002DE9F047F6
:1040B000ADF5313DAE4D00240127EAB04FF48076D6
:1040C000FCF7C2FA4FF00208FFF78EFF142200211E
:1040D0000AA800F0F5FC2B6B0022072143F0100327
:1040E000A4484FF480694FF0200A2B632B6B03F038
:1040F00010030293029B2B6B43F004032B632B6B87
:1041000003F004030393039B2B6B43F001032B6326
:104110002B6B03F001030493049B2B6B43F002030E
:104120002B632B6B03F002030593059B2B6B43F072
:1041300008032B632B6B03F008030693069BFDF724
:10414000E3F800224FF480618B48FDF7DDF8002290
:1041500020218A48FDF7D8F807230AA985480A9341
:104160000C940D940B97FCF7DFFF0AA984480A967C
:104170000B940C94FCF7D8FF0AA97F480A960C947C
:104180000D940E94CDF82C80FCF7CEFF0AA97A4846
:104190000C940D94CDF828900B97FCF7C5FF0AA955
:1041A00076480C940D94CDF828A00B97FCF7BCFF33
:1041B0002B6B224621460C2043F48003714E2B6367
:1041C0002B6B03F480030093009B2B6B43F40013D1
:1041D0002B632B6B6C4D03F400130193019BFCF7D5
:1041E00075FA0C20FCF7AAFA224621460E20FCF7AD
:1041F0006DFA0E20FCF7A2FA224621463920FCF780
:1042000065FA3920FCF79AFA224621463B20FCF752
:104210005DFA3B20FCF792FA214622464520FCF746
:1042200055FA4520FCF78AFA584B594A9C60DC60E5
:104230001C615C619C6183E81400FFF783FE5548B4
:10424000554A4FF4E1338460C46004618461C46101
:104250000462446280E80C000C234361FFF781FA9A
:104260004E4B28464E49AC602C616C61AC61EC61F0
:104270002C62EF6085E80A00FDF727F94FF48051C2
:104280002846FDF707FA21462846464DFDF728FA4D
:10429000102221460AA800F013FC64234248079428
:1042A00008940994B46034617461B461F76086E87D
:1042B00009003046FEF78CFE4FF480530AA93046C1
:1042C0000A93FEF7A9FE07A93046079408940994BB
:1042D000FEF736FF354B28462C616C61AC612C62D1
:1042E0006C62AC62EC622C6385E818048023EB609E
:1042F000FCF786FA3046FEF739FD3A4649461E4835
:10430000FDF702F803211120FFF736FE41210D20B1
:10431000FFF732FE21462A20FFF72EFE21462B20F2
:10432000FFF72AFE21463320FFF726FE21463420E0
:10433000FFF722FE21462D20FFF71EFE21462E20EC
:1043400009ACFFF719FE65210E20FFF715FE0621C7
:104350001220FFF711FE4FF416530AAA41462846D1
:10436000FCF794FA54F8040FFFF71CFEFAE700BFBD
:1043700000380240000802400000024000040240F1
:1043800000100240D823002018210020A422002081
:10439000002C0140C4210020004800405A3D50003C
:1043A000006000408823002000000140000005500C
:1043B0007047000010B50123054C2370FFF77EFD08
:1043C000234618B9227802F0FE022270187810BD38
:1043D0000800002010B50123044C2370FFF79CFD5A
:1043E00010B9FFF7E7FF2070207810BD080000200B
:1043F000FFF7E0BF08B5084611461A464FF0FF33F5
:10440000FFF73CFD20B9FFF759FD0028FBD108BD9F
:10441000012008BD124B10B51B7888B01446DB078D
:104420001BD4032903D8DFE801F010050B12042088
:1044300008B010BD6846FFF74BFD069B236004E003
:104440006846FFF745FD079B23800020F0E768469C
:10445000FFF73EFD079B5B0AF0E70320E8E700BF9C
:104460000800002008B5084611461A464FF0FF33F1
:10447000FFF714FD20B9FFF721FD0028FBD108BD8F
:10448000012008BD0A4B82B01A6C42F080521A64B7
:104490001A6C02F080520092009A5A6C42F48042E8
:1044A0005A645B6C03F480430193019B02B0704734
:1044B000003802402DE9F04114228AB0074600215D
:1044C0000DEB020000F0FCFA3A68464B9A4240F0CD
:1044D0008680454B0D24022605A95A6B00254348CA
:1044E0004FF0C00842F001025A635A6B02F0010219
:1044F0000092009A1A6B42F010021A631A6B02F0D3
:1045000010020192019A1A6B42F001021A631A6BAF
:1045100002F001020292029A1A6B42F004021A633C
:104520001A6B02F004020392039A1A6B42F0020221
:104530001A631B6B099403F0020306960493049B11
:1045400073230593FCF7F0FD502305A92848059334
:104550000994069607950895FCF7E6FD05A92548F8
:104560000994CDF81480069607950895FCF7DCFDB4
:10457000214805A90994CDF81480204C069607958A
:104580000895FCF7D1FD4FF000731D4A2046A56049
:10459000E560E562256384E80C004FF480632361E5
:1045A0004FF4805363614FF48043A3614FF48073F1
:1045B000E3614FF400332362042363620323A362A5
:1045C000FCF736FA08B1FFF7F3FE00224E20BC6478
:1045D0001146A763FCF77AF84E20FCF7AFF80AB053
:1045E000BDE8F08100000550003802400010024094
:1045F0000000024000080240000402404422002063
:104600002864024010B588B004461422002103A893
:1046100000F056FA2268124B9A421FD1114C03A99E
:104620001148236B43F002032363236B03F002035F
:104630000193019B4FF440730393122304930123CE
:10464000059306930793FCF76FFD236C43F080738B
:104650002364236C03F080730293029B08B010BDA7
:104660000060004000380240000402402DE9F04F95
:1046700089B005461422002103A800F021FA2A6817
:10468000544B9A4240F0A28003F586330C24032653
:104690004FF002085A6C4FF0010B00270DEB04019C
:1046A00042F400624C484FF4805A4FF004095A64B7
:1046B0005A6C02F400620092009A1A6B42F00402F3
:1046C0001A631A6B02F004020192019A1A6B42F00B
:1046D00008021A631B6B079403F00803CDF81080DF
:1046E000CDF814B00293029B4FF4706306960393C7
:1046F000FCF71AFD0DEB040137480794CDF80CA028
:10470000CDF8108005970696FCF70EFD0DEB040121
:1047100032480794CDF80C90314CCDF81080CDF88C
:1047200014B00696FCF700FD2E4B4FF0006E2046AD
:10473000A760E760C4F814A02762C4F82490A662BA
:1047400084E808404FF4806323614FF48043A36101
:104750002023E3614FF40003E3624FF4001323636B
:10476000FCF766F908B1FFF723FE1F4B4FF0006618
:10477000EC634027A5634FF480621C4C84E8C800BA
:10478000002322614FF480522046E3602362042319
:1047900062614FF4804263620323A2612022A3621C
:1047A0004FF40003E261E3624FF400132363FCF76C
:1047B0003FF908B1FFF7FCFD002231202C641146BF
:1047C000A563FBF783FF3120FBF7B8FF09B0BDE815
:1047D000F08F00BF002C014000080240000C024096
:1047E0001824002058640240A0640240782400206D
:1047F00007B50D4B02689A4212D103F59C3319207C
:104800005A6C42F001025A6400225B6C114603F0BC
:1048100001030193019BFBF759FF1920FBF78EFF62
:1048200003B05DF804FB00BF0000014030B589B063
:1048300005461422002103A800F042F92A68304BF3
:104840009A425BD103F5F8332E4803A92E4C1A6C1B
:1048500042F480221A641A6C02F480220192019AB6
:104860001A6B42F002021A631B6B03F002030293FD
:10487000029B4FF4406303930223049303230693A4
:1048800007230793FCF750FC20484FF000634FF4D8
:10489000806284E80900002320462261A360E3606F
:1048A0006361A361E36123626362FCF7C1F808B14D
:1048B000FFF77EFD164B4FF0006CEC664FF0400E9C
:1048C000A5634FF48062134C84E80850002320460F
:1048D0002261E3606361A361E36123626362FCF7C9
:1048E000A7F808B1FFF764FD00222720AC66114647
:1048F000A563FBF7EBFE2720FBF720FF09B030BDD7
:10490000004800400004024064210020286002406A
:1049100058600240282300207047FEE7FEE7FEE7CC
:10492000FEE7704770477047FBF79ABE0148FCF7F7
:104930004DB900BF642100200148FCF747B900BF12
:10494000282300200148FEF72CBA00BFD8230020FE
:104950000148FEF735BC00BFC42100200148FEF726
:1049600031B900BFA42200200148FCF72FB900BFD5
:10497000442200200148FCF729B900BF1824002078
:104980000148FCF723B900BF782400200148FBF759
:10499000EFBF00BF8823002008B50A4B0246196804
:1049A00009B9094919601868694602448A4206D95A
:1049B00000F05CF80C2303604FF0FF3008BD1A6074
:1049C00008BD00BF9C000020DC2400200F4900200F
:1049D000D1F8883043F47003C1F888300C4B1A6862
:1049E00042F001021A6098601A6822F0847222F480
:1049F00080321A60074A5A601A6822F480221A60CC
:104A0000D8604FF000638B60704700BF00ED00E09E
:104A10000038024010300024DFF834D0002103E0D9
:104A20000C4B5B58435004310B480C4B42189A42D4
:104A3000F6D30B4A02E0002342F8043B094B9A42AA
:104A4000F9D3FFF7C3FF00F017F8FFF72FFB70470C
:104A500000000820B453000800000020740000206B
:104A600074000020DC240020FEE70000014B1868E1
:104A7000704700BF1000002070B50D4E0D4CA41BF8
:104A8000A4100025A54209D10B4E0C4C00F03EFCB1
:104A9000A41BA4100025A54205D170BD56F82530F1
:104AA00098470135EEE756F8253098470135F2E78B
:104AB000AC530008AC530008AC530008B0530008D6
:104AC00002440346934200D1704703F8011BF9E703
:104AD0000EB400B59CB04FF402711DABADF81410CC
:104AE000029006906FF000410A48049107914FF63A
:104AF000FF7153F8042BADF816100068019302A95A
:104B000000F066F8029B00221A701CB05DF804EBFE
:104B100003B07047100000202DE9F0478E689E42D8
:104B200082460C469146984635D88A8912F4906F91
:104B300031D0256809696F1A6569022305EB4505BF
:104B400095FBF3F508F101033B449D4238BF1D4638
:104B5000530531D5294600F039FB064650B90C23E0
:104B6000CAF80030A38943F04003A3814FF0FF301F
:104B7000BDE8F0873A46216900F0B4FAA38923F42E
:104B8000906343F08003A381266165613E44ED1B81
:104B90002660A5604646464528BF464632464946F9
:104BA000206800F0AAFAA3689B1BA36023681E4438
:104BB00026600020BDE8F0872A4600F065FB064627
:104BC0000028E1D12169504600F0B2FAC7E70000A1
:104BD0002DE9F04F9DB0804603938B891C060D464E
:104BE00016460FD50B696BB9402100F0EFFA28602B
:104BF000286128B90C23C8F800304FF0FF30C5E019
:104C000040236B610023099320238DF82930302342
:104C10008DF82A304FF0010B37463C4614F8013B23
:104C2000002B3CD1B7EB060A0BD05346324629463F
:104C30004046FFF771FF013000F0A380099B534409
:104C400009933B78002B00F09C8000234FF0FF324B
:104C500004930793059206938DF853301A93052217
:104C600021785048FBF7F4FA671C049BD8B9D906A1
:104C700044BF20228DF853201A0744BF2B228DF801
:104C8000532022782A2A16D0079A00210A20274684
:104C900001343B78303B092B51D9C9B111E0252BA8
:104CA000C0D02746B9E73F4A801A0BFA00F01843F4
:104CB00004903C46D3E7039A111D12680391002A21
:104CC00001DB079204E0524243F00203079204938F
:104CD0003B782E2B0ED17B782A2B07F1010132D1A4
:104CE000039B1A1D1B680392002BB8BF4FF0FF33C4
:104CF000023705932C4C397803222046FBF7A8FA9B
:104D000038B14023001B03FA00F0049B03430493D3
:104D10000137397825488DF8281006227E1CFBF7CC
:104D200097FA002835D0224BFBB9039B073323F0B9
:104D3000070308330393099B4B4409936CE700FB7B
:104D400002320121A3E70023059318460A240F46E7
:104D500001313A78303A092A03D9002BCAD005909C
:104D6000C8E704FB00200123F1E703AB00932A46C8
:104D7000104B04A94046AFF30080B0F1FF3F8146DD
:104D8000D9D1AB895B063FF538AF09981DB0BDE8B6
:104D9000F08F03AB00932A46064B04A9404600F06F
:104DA00081F8EAE770530008765300087A53000848
:104DB00000000000194B00082DE9F04791461F46FE
:104DC0008A680B69DDF820809342B8BF1346C9F8A2
:104DD000003091F8432006460C4612B10133C9F861
:104DE00000302368990642BFD9F800300233C9F871
:104DF0000030256815F0060507D104F1190AE368AB
:104E0000D9F800209B1A9D4229DB94F84330226890
:104E1000003318BF012392062ED404F14302394611
:104E20003046C047013021D02368E568D9F800201A
:104E300003F00603042B08BFAD1AA36822690CBF58
:104E400025EAE57500259342C4BF9B1AED184FF083
:104E500000091A344D451BD10020BDE8F08701231D
:104E6000524639463046C047013003D14FF0FF303B
:104E7000BDE8F0870135C2E7E1185A1C302081F8FF
:104E80004300224494F8451082F843100233C4E7EB
:104E90000123224639463046C0470130E6D009F1A9
:104EA0000109D7E72DE9F04317460A7E85B06E2A3F
:104EB000984606460C460C9B01F1430E00F0BC8060
:104EC0001AD8632A2ED00AD8002A00F0C880582A9F
:104ED00000F08A8004F1420584F842202AE0642A26
:104EE00001D0692AF6D121681A6811F0800F23D009
:104EF000111D1960136827E0732A00F0B48008D8E8
:104F00006F2A2AD0702AE5D10A6842F020020A608E
:104F100003E0752A21D0782ADCD1782284F8452054
:104F20006E4964E01A6801F14205111D19601368A9
:104F300084F842300123A3E011F0400F02F1040194
:104F40001960D7D0B2F90030002B03DA2D225B4272
:104F500084F8432062490A2217E02068196810F09B
:104F6000800F03D0081D18600B6806E010F0400F9A
:104F700001F104001860F7D00B8859496F2A14BF5B
:104F80000A220822002084F843006568A560002DED
:104F9000C0F29C80206820F004002060002B3FD1EC
:104FA000002D40F095807546082A0BD12368DA075A
:104FB00008D5236962689A42DEBF302305F8013CB8
:104FC00005F1FF35AEEB05032361CDF800803B46CC
:104FD00003AA21463046FFF7EFFE013055D14FF0CE
:104FE000FF3005B0BDE8F08381F845203C492268D8
:104FF000186812F0800F00F104051D6001D00368ED
:1050000002E05506FBD50388D00744BF42F02002DA
:1050100022601BB9226822F0200222601022B1E730
:105020007546B3FBF2F002FB1033CB5C05F8013D93
:1050300003460028F5D1B7E708681A68496910F0F7
:10504000800F04D0101D18601368196007E010F07D
:10505000400F02F1040018601368F6D01980002395
:1050600023617546B1E71A68111D196015686268F9
:1050700000212846FBF7ECF808B1401B606063682C
:105080002361002384F843309FE723692A46394689
:105090003046C0470130A2D023689B0707D50025C2
:1050A00004F11909E368039A9B1A9D4205DBE06845
:1050B000039B9842B8BF184693E701234A463946F6
:1050C0003046C04701308AD00135EBE7002BA7D12D
:1050D0000B7884F8423004F1420565E792530008EA
:1050E0008153000810B5431E0A44914200D110BDFF
:1050F00011F8014B03F8014FF7E7884210B501EBB7
:10510000020303D8421E99420CD110BD9842F9D235
:105110008118D21AD34200D110BD13F8014D01F805
:10512000014DF7E711F8014B02F8014FEBE70000E2
:1051300038B50546002945D051F8043C0C1F002B1A
:10514000B8BFE41800F0D6F81F4A1368104633B908
:10515000636014602846BDE8384000F0CCB8A34234
:105160000CD921686218934204BF1A685B686360B7
:1051700004BF521822600460ECE713465A680AB173
:10518000A242FAD919685818A0420BD120680144EC
:10519000581882421960DDD1106852685A60014483
:1051A0001960D7E702D90C232B60D3E720682118B8
:1051B0008A4204BF11685268626004BF0918216006
:1051C0005C60C7E738BD00BFA000002070B5CD1CF3
:1051D00025F0030508350C2D38BF0C25002D06469B
:1051E00001DBA94203D90C233360002070BD00F01D
:1051F00081F8234A1468214691B9224C23681BB9CF
:10520000304600F067F820602946304600F062F82A
:10521000431C26D10C233360304600F06CF8E4E7E1
:105220000B685B1B1AD40B2B0FD90B60CD50CC181D
:10523000304600F060F804F10B00231D20F0070059
:10524000C31A1BD05A42E25070BD8C420DBF636836
:105250004B686360136018BF0C46E9E70C46496869
:10526000CAE7C41C24F00304A04205D0211A30462A
:1052700000F030F80130CDD02560D9E770BD00BF17
:10528000A0000020A4000020F8B5074614460E46F2
:1052900021B91146BDE8F840FFF798BF22B9FFF7E2
:1052A00047FF25462846F8BD00F026F884420FD96E
:1052B00021463846FFF78AFF05460028F2D03146DE
:1052C0002246FFF70FFF31463846FFF731FFE9E787
:1052D0003546E7E738B5064C002305460846236007
:1052E000FFF75AFB431C02D1236803B12B6038BD82
:1052F000D82400207047704751F8040C0028A0F112
:105300000400BCBF0B58C01870470000F8B500BFC0
:10531000F8BC08BC9E467047F8B500BFF8BC08BC96
:045320009E467047EE
:1053240000061016000610160104020800101010E2
:1053340004101010021010100825640A0000000068
:10534400D5430008F1430008F5430008654400080C
:1053540015440008000000000000000001020304DE
:10536400060708090000000001020304232D302B66
:105374002000686C4C006566674546470030313252
:1053840033343536373839414243444546003031A9
:105394003233343536373839616263646566000008
:0853A4007CAFFF7F0100000057
:0453AC0025020008CE
:0453B00001020008EE
:1053B4000100000010000000010000000024F400BF
:1053C40014000020000000000000000000000000A5
:1053D40000000000000000000000000000000000C9
:1053E40000000000000000000000000000000000B9
:1053F40000000000000000000000000000000000A9
:105404000000000000000000000000000000000098
:105414000000000000000000000000000000000088
:045424000000000084
:0400000508004A198C
:00000001FF
